{
  "address": "0x5FbDB2315678afecb367f032d93F642f64180aa3",
  "abi": [
    {
      "inputs": [
        {
          "internalType": "uint256",
          "name": "percentCut",
          "type": "uint256"
        }
      ],
      "stateMutability": "nonpayable",
      "type": "constructor"
    },
    {
      "inputs": [],
      "name": "PartyFactory__Unauthorized",
      "type": "error"
    },
    {
      "anonymous": false,
      "inputs": [
        {
          "indexed": true,
          "internalType": "address",
          "name": "partyAddress",
          "type": "address"
        }
      ],
      "name": "partyCreated",
      "type": "event"
    },
    {
      "anonymous": false,
      "inputs": [],
      "name": "withdrawn",
      "type": "event"
    },
    {
      "stateMutability": "payable",
      "type": "fallback"
    },
    {
      "inputs": [
        {
          "internalType": "string",
          "name": "name",
          "type": "string"
        },
        {
          "internalType": "string",
          "name": "symbol",
          "type": "string"
        },
        {
          "internalType": "uint256",
          "name": "maxAttendees",
          "type": "uint256"
        },
        {
          "internalType": "uint256",
          "name": "ticketCost",
          "type": "uint256"
        }
      ],
      "name": "createParty",
      "outputs": [
        {
          "internalType": "address",
          "name": "",
          "type": "address"
        }
      ],
      "stateMutability": "nonpayable",
      "type": "function"
    },
    {
      "inputs": [
        {
          "internalType": "address",
          "name": "partyAddress",
          "type": "address"
        }
      ],
      "name": "getIsParty",
      "outputs": [
        {
          "internalType": "bool",
          "name": "",
          "type": "bool"
        }
      ],
      "stateMutability": "view",
      "type": "function"
    },
    {
      "inputs": [
        {
          "internalType": "address",
          "name": "host",
          "type": "address"
        }
      ],
      "name": "getParties",
      "outputs": [
        {
          "internalType": "address[]",
          "name": "",
          "type": "address[]"
        }
      ],
      "stateMutability": "view",
      "type": "function"
    },
    {
      "inputs": [],
      "name": "i_owner",
      "outputs": [
        {
          "internalType": "address",
          "name": "",
          "type": "address"
        }
      ],
      "stateMutability": "view",
      "type": "function"
    },
    {
      "inputs": [],
      "name": "i_percentCut",
      "outputs": [
        {
          "internalType": "uint256",
          "name": "",
          "type": "uint256"
        }
      ],
      "stateMutability": "view",
      "type": "function"
    },
    {
      "inputs": [],
      "name": "withdraw",
      "outputs": [],
      "stateMutability": "nonpayable",
      "type": "function"
    },
    {
      "stateMutability": "payable",
      "type": "receive"
    }
  ],
  "transactionHash": "0xa806c64093a2948b80fdd4fa235993d760c4d943bd2a141a9a9916f52094295c",
  "args": [
    "300"
  ],
  "numDeployments": 1,
  "solcInputHash": "36a8671c2393506d6cc841dc0689847f",
  "bytecode": "0x60c060405234801561001057600080fd5b506040516149ab3803806149ab8339818101604052810190610032919061008c565b80608081815250503373ffffffffffffffffffffffffffffffffffffffff1660a08173ffffffffffffffffffffffffffffffffffffffff1660601b81525050506100df565b600081519050610086816100c8565b92915050565b6000602082840312156100a2576100a16100c3565b5b60006100b084828501610077565b91505092915050565b6000819050919050565b600080fd5b6100d1816100b9565b81146100dc57600080fd5b50565b60805160a05160601c614896610115600039600081816101b601526105a90152600081816102b2015261040301526148966000f3fe608060405260043610620000615760003560e01c80633ccfd60b146200006e5780634a0cf0fb1462000088578063b7c5a3fe14620000b8578063c433603614620000fc578063d2f86fa01462000140578063dba6335f14620001845762000069565b366200006957005b600080fd5b3480156200007b57600080fd5b5062000086620001b4565b005b3480156200009557600080fd5b50620000a0620002b0565b604051620000af919062000959565b60405180910390f35b348015620000c557600080fd5b50620000e46004803603810190620000de919062000685565b620002d4565b604051620000f39190620008b1565b60405180910390f35b3480156200010957600080fd5b5062000128600480360381019062000122919062000685565b6200032a565b6040516200013791906200088d565b60405180910390f35b3480156200014d57600080fd5b506200016c6004803603810190620001669190620006b7565b620003f8565b6040516200017b919062000870565b60405180910390f35b3480156200019157600080fd5b506200019c620005a7565b604051620001ab919062000870565b60405180910390f35b7f000000000000000000000000000000000000000000000000000000000000000073ffffffffffffffffffffffffffffffffffffffff163373ffffffffffffffffffffffffffffffffffffffff16146200023a576040517f2632f30000000000000000000000000000000000000000000000000000000000815260040160405180910390fd5b3373ffffffffffffffffffffffffffffffffffffffff166108fc479081150290604051600060405180830381858888f1935050505015801562000281573d6000803e3d6000fd5b507fc80ec522ae86928251c56b604214b02a1da4bed3cbee0e4d403df04945e172b560405160405180910390a1565b7f000000000000000000000000000000000000000000000000000000000000000081565b6000600160008373ffffffffffffffffffffffffffffffffffffffff1673ffffffffffffffffffffffffffffffffffffffff16815260200190815260200160002060009054906101000a900460ff169050919050565b60606000808373ffffffffffffffffffffffffffffffffffffffff1673ffffffffffffffffffffffffffffffffffffffff168152602001908152602001600020805480602002602001604051908101604052809291908181526020018280548015620003ec57602002820191906000526020600020905b8160009054906101000a900473ffffffffffffffffffffffffffffffffffffffff1673ffffffffffffffffffffffffffffffffffffffff1681526020019060010190808311620003a1575b50505050509050919050565b6000808585858533307f00000000000000000000000000000000000000000000000000000000000000006040516200043090620005cb565b620004429796959493929190620008ce565b604051809103906000f0801580156200045f573d6000803e3d6000fd5b5090506000803373ffffffffffffffffffffffffffffffffffffffff1673ffffffffffffffffffffffffffffffffffffffff168152602001908152602001600020819080600181540180825580915050600190039060005260206000200160009091909190916101000a81548173ffffffffffffffffffffffffffffffffffffffff021916908373ffffffffffffffffffffffffffffffffffffffff16021790555060018060008373ffffffffffffffffffffffffffffffffffffffff1673ffffffffffffffffffffffffffffffffffffffff16815260200190815260200160002060006101000a81548160ff0219169083151502179055508073ffffffffffffffffffffffffffffffffffffffff167f1ab246f4a853fc87d4152d22fb528fd2cce9cc2280b7c74e9c7efa97a735841c60405160405180910390a280915050949350505050565b7f000000000000000000000000000000000000000000000000000000000000000081565b613ce98062000b7883390190565b6000620005f0620005ea846200099f565b62000976565b9050828152602081018484840111156200060f576200060e62000b23565b5b6200061c84828562000a74565b509392505050565b600081359050620006358162000b43565b92915050565b600082601f83011262000653576200065262000b1e565b5b813562000665848260208601620005d9565b91505092915050565b6000813590506200067f8162000b5d565b92915050565b6000602082840312156200069e576200069d62000b2d565b5b6000620006ae8482850162000624565b91505092915050565b60008060008060808587031215620006d457620006d362000b2d565b5b600085013567ffffffffffffffff811115620006f557620006f462000b28565b5b62000703878288016200063b565b945050602085013567ffffffffffffffff81111562000727576200072662000b28565b5b62000735878288016200063b565b935050604062000748878288016200066e565b92505060606200075b878288016200066e565b91505092959194509250565b600062000775838362000781565b60208301905092915050565b6200078c8162000a2a565b82525050565b6200079d8162000a2a565b82525050565b6000620007b082620009e5565b620007bc818562000a08565b9350620007c983620009d5565b8060005b8381101562000800578151620007e4888262000767565b9750620007f183620009fb565b925050600181019050620007cd565b5085935050505092915050565b620008188162000a3e565b82525050565b60006200082b82620009f0565b62000837818562000a19565b93506200084981856020860162000a83565b620008548162000b32565b840191505092915050565b6200086a8162000a6a565b82525050565b600060208201905062000887600083018462000792565b92915050565b60006020820190508181036000830152620008a98184620007a3565b905092915050565b6000602082019050620008c860008301846200080d565b92915050565b600060e0820190508181036000830152620008ea818a6200081e565b905081810360208301526200090081896200081e565b90506200091160408301886200085f565b6200092060608301876200085f565b6200092f608083018662000792565b6200093e60a083018562000792565b6200094d60c08301846200085f565b98975050505050505050565b60006020820190506200097060008301846200085f565b92915050565b60006200098262000995565b905062000990828262000ab9565b919050565b6000604051905090565b600067ffffffffffffffff821115620009bd57620009bc62000aef565b5b620009c88262000b32565b9050602081019050919050565b6000819050602082019050919050565b600081519050919050565b600081519050919050565b6000602082019050919050565b600082825260208201905092915050565b600082825260208201905092915050565b600062000a378262000a4a565b9050919050565b60008115159050919050565b600073ffffffffffffffffffffffffffffffffffffffff82169050919050565b6000819050919050565b82818337600083830152505050565b60005b8381101562000aa357808201518184015260208101905062000a86565b8381111562000ab3576000848401525b50505050565b62000ac48262000b32565b810181811067ffffffffffffffff8211171562000ae65762000ae562000aef565b5b80604052505050565b7f4e487b7100000000000000000000000000000000000000000000000000000000600052604160045260246000fd5b600080fd5b600080fd5b600080fd5b600080fd5b6000601f19601f8301169050919050565b62000b4e8162000a2a565b811462000b5a57600080fd5b50565b62000b688162000a6a565b811462000b7457600080fd5b5056fe6101206040523480156200001257600080fd5b5060405162003ce938038062003ce983398181016040528101906200003891906200026c565b868681600090805190602001906200005292919062000110565b5080600190805190602001906200006b92919062000110565b505050600085116200007c57600080fd5b84608081815250508360c081815250508273ffffffffffffffffffffffffffffffffffffffff1660e08173ffffffffffffffffffffffffffffffffffffffff1660601b815250508173ffffffffffffffffffffffffffffffffffffffff166101008173ffffffffffffffffffffffffffffffffffffffff1660601b815250508060a081815250505050505050505062000553565b8280546200011e9062000430565b90600052602060002090601f0160209004810192826200014257600085556200018e565b82601f106200015d57805160ff19168380011785556200018e565b828001600101855582156200018e579182015b828111156200018d57825182559160200191906001019062000170565b5b5090506200019d9190620001a1565b5090565b5b80821115620001bc576000816000905550600101620001a2565b5090565b6000620001d7620001d18462000386565b6200035d565b905082815260208101848484011115620001f657620001f5620004ff565b5b62000203848285620003fa565b509392505050565b6000815190506200021c816200051f565b92915050565b600082601f8301126200023a5762000239620004fa565b5b81516200024c848260208601620001c0565b91505092915050565b600081519050620002668162000539565b92915050565b600080600080600080600060e0888a0312156200028e576200028d62000509565b5b600088015167ffffffffffffffff811115620002af57620002ae62000504565b5b620002bd8a828b0162000222565b975050602088015167ffffffffffffffff811115620002e157620002e062000504565b5b620002ef8a828b0162000222565b9650506040620003028a828b0162000255565b9550506060620003158a828b0162000255565b9450506080620003288a828b016200020b565b93505060a06200033b8a828b016200020b565b92505060c06200034e8a828b0162000255565b91505092959891949750929550565b6000620003696200037c565b905062000377828262000466565b919050565b6000604051905090565b600067ffffffffffffffff821115620003a457620003a3620004cb565b5b620003af826200050e565b9050602081019050919050565b6000620003c982620003d0565b9050919050565b600073ffffffffffffffffffffffffffffffffffffffff82169050919050565b6000819050919050565b60005b838110156200041a578082015181840152602081019050620003fd565b838111156200042a576000848401525b50505050565b600060028204905060018216806200044957607f821691505b6020821081141562000460576200045f6200049c565b5b50919050565b62000471826200050e565b810181811067ffffffffffffffff82111715620004935762000492620004cb565b5b80604052505050565b7f4e487b7100000000000000000000000000000000000000000000000000000000600052602260045260246000fd5b7f4e487b7100000000000000000000000000000000000000000000000000000000600052604160045260246000fd5b600080fd5b600080fd5b600080fd5b600080fd5b6000601f19601f8301169050919050565b6200052a81620003bc565b81146200053657600080fd5b50565b6200054481620003f0565b81146200055057600080fd5b50565b60805160a05160c05160e05160601c6101005160601c6136fe620005eb60003960008181610c4e0152611718015260008181610b4301528181610bc9015281816110340152818161141b0152818161173c015261179f0152600081816112660152818161139b01526115fc015260008181610c8b0152610dd8015260008181610b1d015281816112c0015261199901526136fe6000f3fe6080604052600436106101fd5760003560e01c80638f2fdb421161010d578063b88d4fde116100a0578063ca0d67e91161006f578063ca0d67e91461075c578063dba6335f14610787578063e95a644f146107b2578063e985e9c5146107db578063f8b8829c1461081857610207565b8063b88d4fde146106a0578063bd3e19d4146106c9578063c5add218146106f4578063c87b56dd1461071f57610207565b8063a5f8cdbb116100dc578063a5f8cdbb146105f3578063a6a7fb3114610623578063ab08eaac1461064e578063b48028e31461067757610207565b80638f2fdb421461054b57806395d89b41146105745780639d7b8e681461059f578063a22cb465146105ca57610207565b80633ccfd60b116101905780634ffae8461161015f5780634ffae8461461042c5780636352211e14610469578063683a6a8b146104a657806370a08231146104d157806376af5bf61461050e57610207565b80633ccfd60b146103845780633d44e9e31461039b57806342842e0e146103d85780634a0cf0fb1461040157610207565b8063171314f1116101cc578063171314f1146102da57806318160ddd1461030557806320bc44251461033057806323b872dd1461035b57610207565b806301ffc9a71461020c57806306fdde0314610249578063081812fc14610274578063095ea7b3146102b157610207565b3661020757600080fd5b600080fd5b34801561021857600080fd5b50610233600480360381019061022e91906129a2565b610843565b6040516102409190612d65565b60405180910390f35b34801561025557600080fd5b5061025e610925565b60405161026b9190612d80565b60405180910390f35b34801561028057600080fd5b5061029b60048036038101906102969190612a45565b6109b7565b6040516102a89190612cfe565b60405180910390f35b3480156102bd57600080fd5b506102d860048036038101906102d39190612962565b6109fd565b005b3480156102e657600080fd5b506102ef610b15565b6040516102fc9190612f02565b60405180910390f35b34801561031157600080fd5b5061031a610b1b565b6040516103279190612f02565b60405180910390f35b34801561033c57600080fd5b50610345610b3f565b6040516103529190612cfe565b60405180910390f35b34801561036757600080fd5b50610382600480360381019061037d919061284c565b610b67565b005b34801561039057600080fd5b50610399610bc7565b005b3480156103a757600080fd5b506103c260048036038101906103bd91906127df565b610d60565b6040516103cf9190612d65565b60405180910390f35b3480156103e457600080fd5b506103ff60048036038101906103fa919061284c565b610db6565b005b34801561040d57600080fd5b50610416610dd6565b6040516104239190612f02565b60405180910390f35b34801561043857600080fd5b50610453600480360381019061044e9190612a45565b610dfa565b6040516104609190612d65565b60405180910390f35b34801561047557600080fd5b50610490600480360381019061048b9190612a45565b610e24565b60405161049d9190612cfe565b60405180910390f35b3480156104b257600080fd5b506104bb610ed6565b6040516104c89190612d80565b60405180910390f35b3480156104dd57600080fd5b506104f860048036038101906104f391906127df565b610f68565b6040516105059190612f02565b60405180910390f35b34801561051a57600080fd5b5061053560048036038101906105309190612a45565b611020565b6040516105429190612d65565b60405180910390f35b34801561055757600080fd5b50610572600480360381019061056d91906127df565b611032565b005b34801561058057600080fd5b506105896111b0565b6040516105969190612d80565b60405180910390f35b3480156105ab57600080fd5b506105b4611242565b6040516105c19190612f02565b60405180910390f35b3480156105d657600080fd5b506105f160048036038101906105ec9190612922565b61124c565b005b61060d600480360381019061060891906127df565b611262565b60405161061a9190612f02565b60405180910390f35b34801561062f57600080fd5b50610638611399565b6040516106459190612f02565b60405180910390f35b34801561065a57600080fd5b50610675600480360381019061067091906129fc565b6113bd565b005b34801561068357600080fd5b5061069e600480360381019061069991906127df565b611419565b005b3480156106ac57600080fd5b506106c760048036038101906106c2919061289f565b611596565b005b3480156106d557600080fd5b506106de6115f8565b6040516106eb9190612f02565b60405180910390f35b34801561070057600080fd5b50610709611620565b6040516107169190612d80565b60405180910390f35b34801561072b57600080fd5b5061074660048036038101906107419190612a45565b6116ae565b6040516107539190612d80565b60405180910390f35b34801561076857600080fd5b50610771611716565b60405161077e9190612cfe565b60405180910390f35b34801561079357600080fd5b5061079c61173a565b6040516107a99190612cfe565b60405180910390f35b3480156107be57600080fd5b506107d960048036038101906107d49190612a45565b61175e565b005b3480156107e757600080fd5b5061080260048036038101906107fd919061280c565b611901565b60405161080f9190612d65565b60405180910390f35b34801561082457600080fd5b5061082d611995565b60405161083a9190612f02565b60405180910390f35b60007f80ac58cd000000000000000000000000000000000000000000000000000000007bffffffffffffffffffffffffffffffffffffffffffffffffffffffff1916827bffffffffffffffffffffffffffffffffffffffffffffffffffffffff1916148061090e57507f5b5e139f000000000000000000000000000000000000000000000000000000007bffffffffffffffffffffffffffffffffffffffffffffffffffffffff1916827bffffffffffffffffffffffffffffffffffffffffffffffffffffffff1916145b8061091e575061091d826119bd565b5b9050919050565b606060008054610934906131b2565b80601f0160208091040260200160405190810160405280929190818152602001828054610960906131b2565b80156109ad5780601f10610982576101008083540402835291602001916109ad565b820191906000526020600020905b81548152906001019060200180831161099057829003601f168201915b5050505050905090565b60006109c282611a27565b6004600083815260200190815260200160002060009054906101000a900473ffffffffffffffffffffffffffffffffffffffff169050919050565b6000610a0882610e24565b90508073ffffffffffffffffffffffffffffffffffffffff168373ffffffffffffffffffffffffffffffffffffffff161415610a79576040517f08c379a0000000000000000000000000000000000000000000000000000000008152600401610a7090612ec2565b60405180910390fd5b8073ffffffffffffffffffffffffffffffffffffffff16610a98611a72565b73ffffffffffffffffffffffffffffffffffffffff161480610ac75750610ac681610ac1611a72565b611901565b5b610b06576040517f08c379a0000000000000000000000000000000000000000000000000000000008152600401610afd90612e62565b60405180910390fd5b610b108383611a7a565b505050565b60065481565b7f000000000000000000000000000000000000000000000000000000000000000081565b60007f0000000000000000000000000000000000000000000000000000000000000000905090565b610b78610b72611a72565b82611b33565b610bb7576040517f08c379a0000000000000000000000000000000000000000000000000000000008152600401610bae90612ee2565b60405180910390fd5b610bc2838383611bc8565b505050565b7f000000000000000000000000000000000000000000000000000000000000000073ffffffffffffffffffffffffffffffffffffffff163373ffffffffffffffffffffffffffffffffffffffff1614610c4c576040517f6c23498100000000000000000000000000000000000000000000000000000000815260040160405180910390fd5b7f000000000000000000000000000000000000000000000000000000000000000073ffffffffffffffffffffffffffffffffffffffff166108fc6127107f000000000000000000000000000000000000000000000000000000000000000047610cb5919061306e565b610cbf919061303d565b9081150290604051600060405180830381858888f19350505050158015610cea573d6000803e3d6000fd5b503373ffffffffffffffffffffffffffffffffffffffff166108fc479081150290604051600060405180830381858888f19350505050158015610d31573d6000803e3d6000fd5b507fc80ec522ae86928251c56b604214b02a1da4bed3cbee0e4d403df04945e172b560405160405180910390a1565b6000600860008373ffffffffffffffffffffffffffffffffffffffff1673ffffffffffffffffffffffffffffffffffffffff16815260200190815260200160002060009054906101000a900460ff169050919050565b610dd183838360405180602001604052806000815250611596565b505050565b7f000000000000000000000000000000000000000000000000000000000000000081565b60006007600083815260200190815260200160002060009054906101000a900460ff169050919050565b6000806002600084815260200190815260200160002060009054906101000a900473ffffffffffffffffffffffffffffffffffffffff169050600073ffffffffffffffffffffffffffffffffffffffff168173ffffffffffffffffffffffffffffffffffffffff161415610ecd576040517f08c379a0000000000000000000000000000000000000000000000000000000008152600401610ec490612ea2565b60405180910390fd5b80915050919050565b606060098054610ee5906131b2565b80601f0160208091040260200160405190810160405280929190818152602001828054610f11906131b2565b8015610f5e5780601f10610f3357610100808354040283529160200191610f5e565b820191906000526020600020905b815481529060010190602001808311610f4157829003601f168201915b5050505050905090565b60008073ffffffffffffffffffffffffffffffffffffffff168273ffffffffffffffffffffffffffffffffffffffff161415610fd9576040517f08c379a0000000000000000000000000000000000000000000000000000000008152600401610fd090612e42565b60405180910390fd5b600360008373ffffffffffffffffffffffffffffffffffffffff1673ffffffffffffffffffffffffffffffffffffffff168152602001908152602001600020549050919050565b600061102b82611e2f565b9050919050565b7f000000000000000000000000000000000000000000000000000000000000000073ffffffffffffffffffffffffffffffffffffffff163373ffffffffffffffffffffffffffffffffffffffff16146110b7576040517f6c23498100000000000000000000000000000000000000000000000000000000815260040160405180910390fd5b600860008273ffffffffffffffffffffffffffffffffffffffff1673ffffffffffffffffffffffffffffffffffffffff16815260200190815260200160002060009054906101000a900460ff161561110e57600080fd5b6001600860008373ffffffffffffffffffffffffffffffffffffffff1673ffffffffffffffffffffffffffffffffffffffff16815260200190815260200160002060006101000a81548160ff021916908315150217905550600115158173ffffffffffffffffffffffffffffffffffffffff167fa0296fffa1a3fd65529bf6528fe74b7fa2ff3ba792ce9a890609631efe97afa760405160405180910390a350565b6060600180546111bf906131b2565b80601f01602080910402602001604051908101604052809291908181526020018280546111eb906131b2565b80156112385780601f1061120d57610100808354040283529160200191611238565b820191906000526020600020905b81548152906001019060200180831161121b57829003601f168201915b5050505050905090565b6000600654905090565b61125e611257611a72565b8383611e9b565b5050565b60007f00000000000000000000000000000000000000000000000000000000000000003410156112be576040517fe3c5b41900000000000000000000000000000000000000000000000000000000815260040160405180910390fd5b7f000000000000000000000000000000000000000000000000000000000000000060065410611319576040517fcce9218200000000000000000000000000000000000000000000000000000000815260040160405180910390fd5b60016006600082825461132c9190612fe7565b9250508190555061133f82600654612008565b8173ffffffffffffffffffffffffffffffffffffffff167fff01b57d7b9c2d2a410ed220a0f39ea314de62f51c30d18efa84a5e824f2e1986006546040516113879190612f02565b60405180910390a26006549050919050565b7f000000000000000000000000000000000000000000000000000000000000000081565b80600990805190602001906113d39291906125f3565b50806040516113e29190612cc3565b60405180910390207f76cb8cb1e50c1f3c3f5670ef20d54e444aab1fdaca3cf98659e335461c011b5060405160405180910390a250565b7f000000000000000000000000000000000000000000000000000000000000000073ffffffffffffffffffffffffffffffffffffffff163373ffffffffffffffffffffffffffffffffffffffff161461149e576040517f6c23498100000000000000000000000000000000000000000000000000000000815260040160405180910390fd5b600860008273ffffffffffffffffffffffffffffffffffffffff1673ffffffffffffffffffffffffffffffffffffffff16815260200190815260200160002060009054906101000a900460ff166114f457600080fd5b6000600860008373ffffffffffffffffffffffffffffffffffffffff1673ffffffffffffffffffffffffffffffffffffffff16815260200190815260200160002060006101000a81548160ff021916908315150217905550600015158173ffffffffffffffffffffffffffffffffffffffff167fa0296fffa1a3fd65529bf6528fe74b7fa2ff3ba792ce9a890609631efe97afa760405160405180910390a350565b6115a76115a1611a72565b83611b33565b6115e6576040517f08c379a00000000000000000000000000000000000000000000000000000000081526004016115dd90612ee2565b60405180910390fd5b6115f284848484612026565b50505050565b60007f0000000000000000000000000000000000000000000000000000000000000000905090565b6009805461162d906131b2565b80601f0160208091040260200160405190810160405280929190818152602001828054611659906131b2565b80156116a65780601f1061167b576101008083540402835291602001916116a6565b820191906000526020600020905b81548152906001019060200180831161168957829003601f168201915b505050505081565b60606116b982611a27565b60006116c3612082565b905060008151116116e3576040518060200160405280600081525061170e565b806116ed84612099565b6040516020016116fe929190612cda565b6040516020818303038152906040525b915050919050565b7f000000000000000000000000000000000000000000000000000000000000000081565b7f000000000000000000000000000000000000000000000000000000000000000081565b61176781611e2f565b61179d576040517f4c2de46900000000000000000000000000000000000000000000000000000000815260040160405180910390fd5b7f000000000000000000000000000000000000000000000000000000000000000073ffffffffffffffffffffffffffffffffffffffff163373ffffffffffffffffffffffffffffffffffffffff16141580156118435750600860003373ffffffffffffffffffffffffffffffffffffffff1673ffffffffffffffffffffffffffffffffffffffff16815260200190815260200160002060009054906101000a900460ff16155b1561187a576040517f6c23498100000000000000000000000000000000000000000000000000000000815260040160405180910390fd5b6007600082815260200190815260200160002060009054906101000a900460ff16156118a557600080fd5b60016007600083815260200190815260200160002060006101000a81548160ff021916908315150217905550807f02086596060659d149f38b081eb3af83dc3ea31407b66e5dce4d56d91693bc3b60405160405180910390a250565b6000600560008473ffffffffffffffffffffffffffffffffffffffff1673ffffffffffffffffffffffffffffffffffffffff16815260200190815260200160002060008373ffffffffffffffffffffffffffffffffffffffff1673ffffffffffffffffffffffffffffffffffffffff16815260200190815260200160002060009054906101000a900460ff16905092915050565b60007f0000000000000000000000000000000000000000000000000000000000000000905090565b60007f01ffc9a7000000000000000000000000000000000000000000000000000000007bffffffffffffffffffffffffffffffffffffffffffffffffffffffff1916827bffffffffffffffffffffffffffffffffffffffffffffffffffffffff1916149050919050565b611a3081611e2f565b611a6f576040517f08c379a0000000000000000000000000000000000000000000000000000000008152600401611a6690612ea2565b60405180910390fd5b50565b600033905090565b816004600083815260200190815260200160002060006101000a81548173ffffffffffffffffffffffffffffffffffffffff021916908373ffffffffffffffffffffffffffffffffffffffff160217905550808273ffffffffffffffffffffffffffffffffffffffff16611aed83610e24565b73ffffffffffffffffffffffffffffffffffffffff167f8c5be1e5ebec7d5bd14f71427d1e84f3dd0314c0f7b2291e5b200ac8c7c3b92560405160405180910390a45050565b600080611b3f83610e24565b90508073ffffffffffffffffffffffffffffffffffffffff168473ffffffffffffffffffffffffffffffffffffffff161480611b815750611b808185611901565b5b80611bbf57508373ffffffffffffffffffffffffffffffffffffffff16611ba7846109b7565b73ffffffffffffffffffffffffffffffffffffffff16145b91505092915050565b8273ffffffffffffffffffffffffffffffffffffffff16611be882610e24565b73ffffffffffffffffffffffffffffffffffffffff1614611c3e576040517f08c379a0000000000000000000000000000000000000000000000000000000008152600401611c3590612dc2565b60405180910390fd5b600073ffffffffffffffffffffffffffffffffffffffff168273ffffffffffffffffffffffffffffffffffffffff161415611cae576040517f08c379a0000000000000000000000000000000000000000000000000000000008152600401611ca590612e02565b60405180910390fd5b611cb98383836121fa565b611cc4600082611a7a565b6001600360008573ffffffffffffffffffffffffffffffffffffffff1673ffffffffffffffffffffffffffffffffffffffff1681526020019081526020016000206000828254611d1491906130c8565b925050819055506001600360008473ffffffffffffffffffffffffffffffffffffffff1673ffffffffffffffffffffffffffffffffffffffff1681526020019081526020016000206000828254611d6b9190612fe7565b92505081905550816002600083815260200190815260200160002060006101000a81548173ffffffffffffffffffffffffffffffffffffffff021916908373ffffffffffffffffffffffffffffffffffffffff160217905550808273ffffffffffffffffffffffffffffffffffffffff168473ffffffffffffffffffffffffffffffffffffffff167fddf252ad1be2c89b69c2b068fc378daa952ba7f163c4a11628f55a4df523b3ef60405160405180910390a4611e2a8383836121ff565b505050565b60008073ffffffffffffffffffffffffffffffffffffffff166002600084815260200190815260200160002060009054906101000a900473ffffffffffffffffffffffffffffffffffffffff1673ffffffffffffffffffffffffffffffffffffffff1614159050919050565b8173ffffffffffffffffffffffffffffffffffffffff168373ffffffffffffffffffffffffffffffffffffffff161415611f0a576040517f08c379a0000000000000000000000000000000000000000000000000000000008152600401611f0190612e22565b60405180910390fd5b80600560008573ffffffffffffffffffffffffffffffffffffffff1673ffffffffffffffffffffffffffffffffffffffff16815260200190815260200160002060008473ffffffffffffffffffffffffffffffffffffffff1673ffffffffffffffffffffffffffffffffffffffff16815260200190815260200160002060006101000a81548160ff0219169083151502179055508173ffffffffffffffffffffffffffffffffffffffff168373ffffffffffffffffffffffffffffffffffffffff167f17307eab39ab6107e8899845ad3d59bd9653f200f220920489ca2b5937696c3183604051611ffb9190612d65565b60405180910390a3505050565b612022828260405180602001604052806000815250612204565b5050565b612031848484611bc8565b61203d8484848461225f565b61207c576040517f08c379a000000000000000000000000000000000000000000000000000000000815260040161207390612da2565b60405180910390fd5b50505050565b606060405180602001604052806000815250905090565b606060008214156120e1576040518060400160405280600181526020017f300000000000000000000000000000000000000000000000000000000000000081525090506121f5565b600082905060005b600082146121135780806120fc90613215565b915050600a8261210c919061303d565b91506120e9565b60008167ffffffffffffffff81111561212f5761212e61334b565b5b6040519080825280601f01601f1916602001820160405280156121615781602001600182028036833780820191505090505b5090505b600085146121ee5760018261217a91906130c8565b9150600a85612189919061325e565b60306121959190612fe7565b60f81b8183815181106121ab576121aa61331c565b5b60200101907effffffffffffffffffffffffffffffffffffffffffffffffffffffffffffff1916908160001a905350600a856121e7919061303d565b9450612165565b8093505050505b919050565b505050565b505050565b61220e83836123f6565b61221b600084848461225f565b61225a576040517f08c379a000000000000000000000000000000000000000000000000000000000815260040161225190612da2565b60405180910390fd5b505050565b60006122808473ffffffffffffffffffffffffffffffffffffffff166125d0565b156123e9578373ffffffffffffffffffffffffffffffffffffffff1663150b7a026122a9611a72565b8786866040518563ffffffff1660e01b81526004016122cb9493929190612d19565b602060405180830381600087803b1580156122e557600080fd5b505af192505050801561231657506040513d601f19601f8201168201806040525081019061231391906129cf565b60015b612399573d8060008114612346576040519150601f19603f3d011682016040523d82523d6000602084013e61234b565b606091505b50600081511415612391576040517f08c379a000000000000000000000000000000000000000000000000000000000815260040161238890612da2565b60405180910390fd5b805181602001fd5b63150b7a0260e01b7bffffffffffffffffffffffffffffffffffffffffffffffffffffffff1916817bffffffffffffffffffffffffffffffffffffffffffffffffffffffff1916149150506123ee565b600190505b949350505050565b600073ffffffffffffffffffffffffffffffffffffffff168273ffffffffffffffffffffffffffffffffffffffff161415612466576040517f08c379a000000000000000000000000000000000000000000000000000000000815260040161245d90612e82565b60405180910390fd5b61246f81611e2f565b156124af576040517f08c379a00000000000000000000000000000000000000000000000000000000081526004016124a690612de2565b60405180910390fd5b6124bb600083836121fa565b6001600360008473ffffffffffffffffffffffffffffffffffffffff1673ffffffffffffffffffffffffffffffffffffffff168152602001908152602001600020600082825461250b9190612fe7565b92505081905550816002600083815260200190815260200160002060006101000a81548173ffffffffffffffffffffffffffffffffffffffff021916908373ffffffffffffffffffffffffffffffffffffffff160217905550808273ffffffffffffffffffffffffffffffffffffffff16600073ffffffffffffffffffffffffffffffffffffffff167fddf252ad1be2c89b69c2b068fc378daa952ba7f163c4a11628f55a4df523b3ef60405160405180910390a46125cc600083836121ff565b5050565b6000808273ffffffffffffffffffffffffffffffffffffffff163b119050919050565b8280546125ff906131b2565b90600052602060002090601f0160209004810192826126215760008555612668565b82601f1061263a57805160ff1916838001178555612668565b82800160010185558215612668579182015b8281111561266757825182559160200191906001019061264c565b5b5090506126759190612679565b5090565b5b8082111561269257600081600090555060010161267a565b5090565b60006126a96126a484612f42565b612f1d565b9050828152602081018484840111156126c5576126c461337f565b5b6126d0848285613170565b509392505050565b60006126eb6126e684612f73565b612f1d565b9050828152602081018484840111156127075761270661337f565b5b612712848285613170565b509392505050565b6000813590506127298161366c565b92915050565b60008135905061273e81613683565b92915050565b6000813590506127538161369a565b92915050565b6000815190506127688161369a565b92915050565b600082601f8301126127835761278261337a565b5b8135612793848260208601612696565b91505092915050565b600082601f8301126127b1576127b061337a565b5b81356127c18482602086016126d8565b91505092915050565b6000813590506127d9816136b1565b92915050565b6000602082840312156127f5576127f4613389565b5b60006128038482850161271a565b91505092915050565b6000806040838503121561282357612822613389565b5b60006128318582860161271a565b92505060206128428582860161271a565b9150509250929050565b60008060006060848603121561286557612864613389565b5b60006128738682870161271a565b93505060206128848682870161271a565b9250506040612895868287016127ca565b9150509250925092565b600080600080608085870312156128b9576128b8613389565b5b60006128c78782880161271a565b94505060206128d88782880161271a565b93505060406128e9878288016127ca565b925050606085013567ffffffffffffffff81111561290a57612909613384565b5b6129168782880161276e565b91505092959194509250565b6000806040838503121561293957612938613389565b5b60006129478582860161271a565b92505060206129588582860161272f565b9150509250929050565b6000806040838503121561297957612978613389565b5b60006129878582860161271a565b9250506020612998858286016127ca565b9150509250929050565b6000602082840312156129b8576129b7613389565b5b60006129c684828501612744565b91505092915050565b6000602082840312156129e5576129e4613389565b5b60006129f384828501612759565b91505092915050565b600060208284031215612a1257612a11613389565b5b600082013567ffffffffffffffff811115612a3057612a2f613384565b5b612a3c8482850161279c565b91505092915050565b600060208284031215612a5b57612a5a613389565b5b6000612a69848285016127ca565b91505092915050565b612a7b816130fc565b82525050565b612a8a8161310e565b82525050565b6000612a9b82612fa4565b612aa58185612fba565b9350612ab581856020860161317f565b612abe8161338e565b840191505092915050565b6000612ad482612faf565b612ade8185612fcb565b9350612aee81856020860161317f565b612af78161338e565b840191505092915050565b6000612b0d82612faf565b612b178185612fdc565b9350612b2781856020860161317f565b80840191505092915050565b6000612b40603283612fcb565b9150612b4b8261339f565b604082019050919050565b6000612b63602583612fcb565b9150612b6e826133ee565b604082019050919050565b6000612b86601c83612fcb565b9150612b918261343d565b602082019050919050565b6000612ba9602483612fcb565b9150612bb482613466565b604082019050919050565b6000612bcc601983612fcb565b9150612bd7826134b5565b602082019050919050565b6000612bef602983612fcb565b9150612bfa826134de565b604082019050919050565b6000612c12603e83612fcb565b9150612c1d8261352d565b604082019050919050565b6000612c35602083612fcb565b9150612c408261357c565b602082019050919050565b6000612c58601883612fcb565b9150612c63826135a5565b602082019050919050565b6000612c7b602183612fcb565b9150612c86826135ce565b604082019050919050565b6000612c9e602e83612fcb565b9150612ca98261361d565b604082019050919050565b612cbd81613166565b82525050565b6000612ccf8284612b02565b915081905092915050565b6000612ce68285612b02565b9150612cf28284612b02565b91508190509392505050565b6000602082019050612d136000830184612a72565b92915050565b6000608082019050612d2e6000830187612a72565b612d3b6020830186612a72565b612d486040830185612cb4565b8181036060830152612d5a8184612a90565b905095945050505050565b6000602082019050612d7a6000830184612a81565b92915050565b60006020820190508181036000830152612d9a8184612ac9565b905092915050565b60006020820190508181036000830152612dbb81612b33565b9050919050565b60006020820190508181036000830152612ddb81612b56565b9050919050565b60006020820190508181036000830152612dfb81612b79565b9050919050565b60006020820190508181036000830152612e1b81612b9c565b9050919050565b60006020820190508181036000830152612e3b81612bbf565b9050919050565b60006020820190508181036000830152612e5b81612be2565b9050919050565b60006020820190508181036000830152612e7b81612c05565b9050919050565b60006020820190508181036000830152612e9b81612c28565b9050919050565b60006020820190508181036000830152612ebb81612c4b565b9050919050565b60006020820190508181036000830152612edb81612c6e565b9050919050565b60006020820190508181036000830152612efb81612c91565b9050919050565b6000602082019050612f176000830184612cb4565b92915050565b6000612f27612f38565b9050612f3382826131e4565b919050565b6000604051905090565b600067ffffffffffffffff821115612f5d57612f5c61334b565b5b612f668261338e565b9050602081019050919050565b600067ffffffffffffffff821115612f8e57612f8d61334b565b5b612f978261338e565b9050602081019050919050565b600081519050919050565b600081519050919050565b600082825260208201905092915050565b600082825260208201905092915050565b600081905092915050565b6000612ff282613166565b9150612ffd83613166565b9250827fffffffffffffffffffffffffffffffffffffffffffffffffffffffffffffffff038211156130325761303161328f565b5b828201905092915050565b600061304882613166565b915061305383613166565b925082613063576130626132be565b5b828204905092915050565b600061307982613166565b915061308483613166565b9250817fffffffffffffffffffffffffffffffffffffffffffffffffffffffffffffffff04831182151516156130bd576130bc61328f565b5b828202905092915050565b60006130d382613166565b91506130de83613166565b9250828210156130f1576130f061328f565b5b828203905092915050565b600061310782613146565b9050919050565b60008115159050919050565b60007fffffffff0000000000000000000000000000000000000000000000000000000082169050919050565b600073ffffffffffffffffffffffffffffffffffffffff82169050919050565b6000819050919050565b82818337600083830152505050565b60005b8381101561319d578082015181840152602081019050613182565b838111156131ac576000848401525b50505050565b600060028204905060018216806131ca57607f821691505b602082108114156131de576131dd6132ed565b5b50919050565b6131ed8261338e565b810181811067ffffffffffffffff8211171561320c5761320b61334b565b5b80604052505050565b600061322082613166565b91507fffffffffffffffffffffffffffffffffffffffffffffffffffffffffffffffff8214156132535761325261328f565b5b600182019050919050565b600061326982613166565b915061327483613166565b925082613284576132836132be565b5b828206905092915050565b7f4e487b7100000000000000000000000000000000000000000000000000000000600052601160045260246000fd5b7f4e487b7100000000000000000000000000000000000000000000000000000000600052601260045260246000fd5b7f4e487b7100000000000000000000000000000000000000000000000000000000600052602260045260246000fd5b7f4e487b7100000000000000000000000000000000000000000000000000000000600052603260045260246000fd5b7f4e487b7100000000000000000000000000000000000000000000000000000000600052604160045260246000fd5b600080fd5b600080fd5b600080fd5b600080fd5b6000601f19601f8301169050919050565b7f4552433732313a207472616e7366657220746f206e6f6e20455243373231526560008201527f63656976657220696d706c656d656e7465720000000000000000000000000000602082015250565b7f4552433732313a207472616e736665722066726f6d20696e636f72726563742060008201527f6f776e6572000000000000000000000000000000000000000000000000000000602082015250565b7f4552433732313a20746f6b656e20616c7265616479206d696e74656400000000600082015250565b7f4552433732313a207472616e7366657220746f20746865207a65726f2061646460008201527f7265737300000000000000000000000000000000000000000000000000000000602082015250565b7f4552433732313a20617070726f766520746f2063616c6c657200000000000000600082015250565b7f4552433732313a2061646472657373207a65726f206973206e6f74206120766160008201527f6c6964206f776e65720000000000000000000000000000000000000000000000602082015250565b7f4552433732313a20617070726f76652063616c6c6572206973206e6f7420746f60008201527f6b656e206f776e6572206e6f7220617070726f76656420666f7220616c6c0000602082015250565b7f4552433732313a206d696e7420746f20746865207a65726f2061646472657373600082015250565b7f4552433732313a20696e76616c696420746f6b656e2049440000000000000000600082015250565b7f4552433732313a20617070726f76616c20746f2063757272656e74206f776e6560008201527f7200000000000000000000000000000000000000000000000000000000000000602082015250565b7f4552433732313a2063616c6c6572206973206e6f7420746f6b656e206f776e6560008201527f72206e6f7220617070726f766564000000000000000000000000000000000000602082015250565b613675816130fc565b811461368057600080fd5b50565b61368c8161310e565b811461369757600080fd5b50565b6136a38161311a565b81146136ae57600080fd5b50565b6136ba81613166565b81146136c557600080fd5b5056fea26469706673582212209f05f70a6e1ebc7ab211db17b6e8777888839b19db220a32fee9a4d78e972a2864736f6c63430008070033a26469706673582212209f707ed832add6c05426f7010261d0a2e2cff9f8b04412f8cdb235685a7061aa64736f6c63430008070033",
  "devdoc": {
    "kind": "dev",
    "methods": {},
    "version": 1
  },
  "userdoc": {
    "kind": "user",
    "methods": {},
    "version": 1
  },
  "storageLayout": {
    "storage": [
      {
        "astId": 2029,
        "contract": "contracts/PartyFactory.sol:PartyFactory",
        "label": "addressToPartiesOwned",
        "offset": 0,
        "slot": "0",
        "type": "t_mapping(t_address,t_array(t_address)dyn_storage)"
      },
      {
        "astId": 2033,
        "contract": "contracts/PartyFactory.sol:PartyFactory",
        "label": "isParty",
        "offset": 0,
        "slot": "1",
        "type": "t_mapping(t_address,t_bool)"
      }
    ],
    "types": {
      "t_address": {
        "encoding": "inplace",
        "label": "address",
        "numberOfBytes": "20"
      },
      "t_array(t_address)dyn_storage": {
        "base": "t_address",
        "encoding": "dynamic_array",
        "label": "address[]",
        "numberOfBytes": "32"
      },
      "t_bool": {
        "encoding": "inplace",
        "label": "bool",
        "numberOfBytes": "1"
      },
      "t_mapping(t_address,t_array(t_address)dyn_storage)": {
        "encoding": "mapping",
        "key": "t_address",
        "label": "mapping(address => address[])",
        "numberOfBytes": "32",
        "value": "t_array(t_address)dyn_storage"
      },
      "t_mapping(t_address,t_bool)": {
        "encoding": "mapping",
        "key": "t_address",
        "label": "mapping(address => bool)",
        "numberOfBytes": "32",
        "value": "t_bool"
      }
    }
  }
}